:100000000C9463000C949D020C9476020C948B006B
:100010000C948B000C948B000C948B000C948B0034
:100020000C948B000C948B000C948B000C948B0024
:100030000C948B000C948B000C948B000C948B0014
:100040000C942C020C948B000C948B000C948B0061
:100050000C948B000C948B000C948B000C948B00F4
:100060000C948B000C948B000000000024002700EF
:100070002A0000000000250028002B0000000008D6
:10008000000201000003040700000000000000005F
:1000900000000000230026002900040404040404D6
:1000A0000404020202020202030303030303010227
:1000B00004081020408001020408102001020408F6
:1000C000102017053B0511241FBECFEFD8E0DEBF7F
:1000D000CDBF21E0A4E4B1E001C01D92A938B20770
:1000E000E1F711E0A0E0B1E0E4E7F1E102C0059042
:1000F0000D92A434B107D9F710E0C2E6D0E004C0F5
:100100002197FE010E94B506C136D107C9F70E94AA
:1001100052030C94AD080C94000091E090937F0181
:1001200090937901809178018927809378010895CF
:10013000833081F028F4813099F08230A9F008955D
:100140008730A9F08830C9F08430B1F48091800004
:100150008F7D03C0809180008F7780938000089509
:1001600084B58F7784BD089584B58F7DFBCF809152
:10017000B0008F778093B00008958091B0008F7D9C
:10018000F9CFCF93DF93282F30E0F901E458FF4FE8
:100190008491F901E255FF4FD491F901E656FF4FE2
:1001A000C491CC23A1F081110E949800EC2FF0E0C3
:1001B000EE0FFF1FE057FF4FA591B491EC91ED2397
:1001C00081E090E009F480E0DF91CF91089580E034
:1001D00090E0FACF1F93CF93DF93282F30E0F901FF
:1001E000E458FF4F8491F901E255FF4FD491F90192
:1001F000E656FF4FC491CC23A9F0162F81110E941F
:100200009800EC2FF0E0EE0FFF1FEE58FF4FA59186
:10021000B4918FB7F894EC91111108C0D095DE23FA
:10022000DC938FBFDF91CF911F910895DE2BF8CF24
:10023000CF93DF9390E0FC01E255FF4F2491865667
:100240009F4FFC0184918823C9F090E0880F991F8B
:10025000FC01E859FF4FA591B491FC01EE58FF4F06
:10026000C591D49161110DC09FB7F8948C912095E0
:1002700082238C938881282328839FBFDF91CF918D
:100280000895623051F49FB7F8943C91822F809585
:1002900083238C93E8812E2BEFCF8FB7F894EC91CA
:1002A0002E2B2C938FBFEACF3FB7F8948091490152
:1002B00090914A01A0914B01B0914C0126B5A89BA9
:1002C00005C02F3F19F00196A11DB11D3FBFBA2FE8
:1002D000A92F982F8827BC01CD01620F711D811DA8
:1002E000911D42E0660F771F881F991F4A95D1F72D
:1002F00008952FB7F894609145017091460180915F
:100300004701909148012FBF089508959F92AF92A1
:10031000BF92CF92DF92EF92FF920F931F93CF93F2
:10032000DF93962E24E1E22E21E0F22ED0E0C0E011
:1003300026E0289F8001299F100D11240C5A1E4F82
:10034000680124E0C20ED11CD6018D919C91C81782
:10035000D90730F4D801ED91FC91309709F04FC0E6
:1003600010924D01EDE4F1E08081813321F461E0F0
:10037000B2E79B1201C060E05701F70184890E9437
:10038000EA00D6018D919C91C817D90728F4D801AD
:10039000ED91FC913097B1F510924D01EDE4F1E053
:1003A0008081813321F461E0BCE69B1201C060E0F2
:1003B000E2E0EE0EF11CD5018C910E94EA0021963C
:1003C000C430D10509F60E9479016B017C01B4E1CA
:1003D000CB0ED11CE11CF11C0E9479016C157D052E
:1003E0008E059F05C8F3DF91CF911F910F91FF906C
:1003F000EF90DF90CF90BF90AF909F900895EC0F5B
:10040000FD1FB2CFEC0FFD1FCBCFFF920F931F93B9
:10041000CF93DF93F82E00E110E082E6F81699F012
:10042000D0E0C0E06F2DCE010E9486012196C4303D
:10043000D105C1F70150110981F7DF91CF911F91CB
:100440000F91FF900895C4E0D0E062E6CE010E94D3
:1004500086012197D1F7EECF1F920F920FB60F9220
:1004600011242F933F938F939F93AF93BF938091CA
:10047000450190914601A0914701B091480130910A
:10048000440123E0230F2D3758F50196A11DB11D1E
:10049000209344018093450190934601A093470126
:1004A000B09348018091490190914A01A0914B017C
:1004B000B0914C010196A11DB11D8093490190930B
:1004C0004A01A0934B01B0934C01BF91AF919F9112
:1004D0008F913F912F910F900FBE0F901F90189505
:1004E00026E8230F0296A11DB11DD2CF1F920F92B5
:1004F0000FB60F9211242F933F934F935F936F93F7
:100500007F938F939F93AF93BF93EF93FF93E0916C
:100510000201F09103010995FF91EF91BF91AF9115
:100520009F918F917F916F915F914F913F912F910B
:100530000F900FBE0F901F9018951F920F920FB63D
:100540000F9211242F933F934F935F936F937F9359
:100550008F939F93AF93BF93EF93FF93E09100012D
:10056000F09101010995FF91EF91BF91AF919F919A
:100570008F917F916F915F914F913F912F910F904C
:100580000FBE0F901F901895CF92DF92EF92FF92BF
:100590000F931F93E82FF92F05C00150110921096E
:1005A000310961F1908196239417B9F305C0015088
:1005B00011092109310911F1908196239413F7CF84
:1005C000C12CD12CE12CF12C0AC08FEFC81AD80A0B
:1005D000E80AF80A0C151D052E053F0579F0808103
:1005E0008623841791F36C2D7D2D8E2D9F2D1F91C9
:1005F0000F91FF90EF90DF90CF90089560E070E052
:1006000080E090E01F910F91FF90EF90DF90CF90EE
:100610000895EF92FF920F931F93CF93DF93EC0116
:100620007B01198218821B821A821D821C82FB01A7
:1006300001900020E9F731978F01061B170BB801D5
:100640006F5F7F4F90E080E00E94E0070097B9F075
:10065000998388831B830A832C813D81232B11F48A
:10066000FC0110821D830C83B70188819981DF9181
:10067000CF911F910F91FF90EF900C94A608888165
:100680009981009711F00E945707198218821D82E4
:100690001C821B821A82DF91CF911F910F91FF90D4
:1006A000EF900895789484B5826084BD84B58160AC
:1006B00084BD85B5826085BD85B5816085BD80912D
:1006C0006E00816080936E001092810080918100A5
:1006D000826080938100809181008160809381009D
:1006E000809180008160809380008091B10084605F
:1006F0008093B1008091B00081608093B0008091C0
:100700007A00846080937A0080917A00826080937E
:100710007A0080917A00816080937A0080917A00DB
:10072000806880937A001092C10062E082E00E94AB
:100730001801CCE0D1E000E311E0899199919C018E
:100740002350310961E02430310508F460E00E9453
:1007500018010C171D0789F78DE890E090930101AF
:100760008093000180916900836080936900E89A1A
:100770002224239420E6822E21E0922E30E0C32E04
:1007800030E0D32E48EEA42E43E0B42E332433942D
:100790000E94790140908101509082016090830114
:1007A00070908401AB01BC014419550966097709B1
:1007B0008091040190910501092E000CAA0BBB0B3E
:1007C000481759076A077B0790F0609180016225FE
:1007D000609380018DE00E94EA000E94790160939D
:1007E000810170938201809383019093840183E05F
:1007F0000E94C100019709F015C180917F018823F3
:1008000009F482C00E94790140907B0150907C01E4
:1008100060907D0170907E016419750986099709C1
:100820006A3F710581059105D0F082E00E94C10008
:100830000197A9F40E94790160937B0170937C0178
:1008400080937D0190937E0180917A0181110BC08C
:1008500080917901882339F03092780104C0109298
:100860007F011092790110927A0180917F01882393
:1008700009F44AC080917801882309F445C0309278
:100880007A01C4E5D1E08C8D9D8D892B91F5109274
:100890004D01EDE4F1E061E08081813309F060E039
:1008A0008EE00E94EA008C8D9D8D029738F51092A3
:1008B0004D01EDE4F1E061E08081813309F060E019
:1008C0008FE00E94EA000E9479012B013C0128E29E
:1008D000420E511C611C711C0E9479016415750542
:1008E00086059705C8F326968C169D0609F4BDCF9C
:1008F000CACFE88DF98D309771F6C9CFE88DF98DA3
:100900003097A9F23196D7CF9EE4E92E91E0F92EE7
:10091000C9E0D0E01C2F60E08C2F0E94EA000E940A
:1009200054012B013C01E2E04E0E511C611C711C74
:100930000E9454016415750586059705C8F361E0AA
:10094000812F0E94EA000E9454012B013C01FAE031
:100950004F0E511C611C711C0E94540164157505D9
:1009600086059705C8F360E0812F0E94EA00FE012A
:10097000E755FF4F6491FE01EB56FF4FE491F0E025
:10098000EE0FFF1FE057FF4F8591949100E412E4B2
:100990002FE030E0462F0E94C402611571058105E9
:1009A000910529F06F5F7F4F8F4F9F4F9F700E947F
:1009B0004D0526E933E44BE05DE30E948A0520E023
:1009C00030E040E05FE30E948A050E947F06F70165
:1009D000619371937F012196CC30D10509F09ACFB4
:1009E00080914E0190914F01069754F086E60E9447
:1009F0000502C114D10409F4CBCE0E940000C8CE78
:100A00008091520190915301069714F082E7EFCF45
:100A10008091500190915101069714F08CE6E7CF38
:100A200082E6E5CFB0920501A0920401E2CF60E337
:100A300071E084E591E00E94090365E371E08AE5D5
:100A400091E00E9409036AE371E080E691E00E9470
:100A500009036FE371E086E691E00E94090361E417
:100A600071E08CE691E00E9409036CE371E082E79B
:100A700091E00C940903CF93DF93C8E7D1E0269768
:100A800088819981009711F00E94570781E0C43551
:100A9000D807A9F7DF91CF910895E89409C097FB93
:100AA0003EF490958095709561957F4F8F4F9F4F45
:100AB0009923A9F0F92F96E9BB279395F695879589
:100AC00077956795B795F111F8CFFAF4BB0F11F44C
:100AD00060FF1BC06F5F7F4F8F4F9F4F16C08823F3
:100AE00011F096E911C0772321F09EE8872F762F29
:100AF00005C0662371F096E8862F70E060E02AF06A
:100B00009A95660F771F881FDAF7880F9695879555
:100B100097F908950E949D050C940E060E94000608
:100B200038F00E94070620F0952311F00C94F70589
:100B30000C94FD0511240C9442060E941F0670F3CC
:100B4000959FC1F3950F50E0551F629FF001729F72
:100B5000BB27F00DB11D639FAA27F00DB11DAA1F81
:100B6000649F6627B00DA11D661F829F2227B00DCE
:100B7000A11D621F739FB00DA11D621F839FA00D59
:100B8000611D221F749F3327A00D611D231F849FA9
:100B9000600D211D822F762F6A2F11249F57504000
:100BA0009AF0F1F088234AF0EE0FFF1FBB1F661F7B
:100BB000771F881F91505040A9F79E3F510580F044
:100BC0000C94F7050C9442065F3FE4F3983ED4F38F
:100BD000869577956795B795F795E7959F5FC1F7E8
:100BE000FE2B880F911D9695879597F9089597F993
:100BF0009F6780E870E060E008959FEF80EC0895C3
:100C000000240A94161617061806090608950024EB
:100C10000A9412161306140605060895092E039465
:100C2000000C11F4882352F0BB0F40F4BF2B11F4D9
:100C300060FF04C06F5F7F4F8F4F9F4F089557FD38
:100C40009058440F551F59F05F3F71F04795880F3A
:100C500097FB991F61F09F3F79F0879508951216D1
:100C600013061406551FF2CF4695F1DF08C016167D
:100C700017061806991FF1CF86957105610508942E
:100C80000895E894BB2766277727CB0197F9089545
:100C90002F923F924F925F926F927F928F929F928C
:100CA000AF92BF92CF92DF92EF92FF920F931F937A
:100CB000CF93DF93CDB7DEB7CA1BDB0B0FB6F8942B
:100CC000DEBF0FBECDBF09942A88398848885F846B
:100CD0006E847D848C849B84AA84B984C884DF80DC
:100CE000EE80FD800C811B81AA81B981CE0FD11DC0
:100CF0000FB6F894DEBF0FBECDBFED0108950E9480
:100D000086066894B1110C94420608950E94270645
:100D100088F09F5798F0B92F9927B751B0F0E1F0BC
:100D2000660F771F881F991F1AF0BA95C9F714C06C
:100D3000B13091F00E944106B1E008950C94410653
:100D4000672F782F8827B85F39F0B93FCCF38695A5
:100D500077956795B395D9F73EF490958095709502
:100D600061957F4F8F4F9F4F0895EE0FFF1F0590A6
:100D7000F491E02D09940F931F93CF93DF9382306A
:100D8000910510F482E090E0E0918701F0918801F4
:100D900030E020E0B0E0A0E0309799F42115310573
:100DA00009F44AC0281B390B24303105D8F58A8153
:100DB0009B816115710589F1FB0193838283FE019B
:100DC00011C0408151810281138148175907E0F019
:100DD0004817590799F4109761F012960C931297DF
:100DE00013961C933296CF01DF91CF911F910F91F3
:100DF00008950093870110938801F4CF21153105E0
:100E000051F04217530738F0A901DB019A01BD01E7
:100E1000DF01F801C1CFEF01F9CF909388018093F2
:100E20008701CDCFFE01E20FF31F819391932250F2
:100E3000310939832883D7CF2091850130918601EC
:100E4000232B41F420910801309109013093860150
:100E5000209385012091060130910701211531056C
:100E600041F42DB73EB740910A0150910B01241B6C
:100E7000350BE0918501F0918601E217F307A0F4AC
:100E80002E1B3F0B2817390778F0AC014E5F5F4FE0
:100E90002417350748F04E0F5F1F5093860140938B
:100EA0008501819391939FCFF0E0E0E09CCFCF93B9
:100EB000DF930097E9F0FC01329713821282A09130
:100EC0008701B0918801ED0130E020E01097A1F496
:100ED00020813181820F931F2091850130918601FD
:100EE0002817390709F061C0F0938601E093850166
:100EF000DF91CF910895EA01CE17DF07E8F54A8127
:100F00005B819E0141155105B1F7E901FB83EA833D
:100F100049915991C40FD51FEC17FD0761F48081E9
:100F200091810296840F951FE901998388838281BC
:100F300093819B838A83F0E0E0E012968D919C91EF
:100F400013970097B9F52D913C911197CD01029619
:100F5000820F931F20918501309186012817390750
:100F600039F6309751F51092880110928701B093AD
:100F70008601A0938501BCCFD383C2834081518178
:100F8000840F951FC817D90761F44E5F5F4F8881A2
:100F90009981480F591F518340838A819B81938394
:100FA00082832115310509F0B0CFF0938801E093D9
:100FB00087019ECFFD01DC01C0CF13821282D7CF03
:100FC000B0E0A0E0E6EEF7E00C944A068C01009752
:100FD00051F4CB010E94BB068C01C801CDB7DEB72E
:100FE000E0E10C946606FC01E60FF71F9C0122501D
:100FF0003109E217F30708F49DC0D901CD91DC91C6
:101000001197C617D70798F0C530D10530F3CE0138
:1010100004978617970708F3C61BD70B2297C1932F
:10102000D1936D937C93CF010E945707D6CF5B017C
:10103000AC1ABD0A4C018C0E9D1EA0918701B09187
:101040008801512C412CF12CE12C109731F5809125
:101050008501909186018815990509F05CC04616B6
:10106000570608F058C0809106019091070100973B
:1010700041F48DB79EB740910A0150910B01841B3A
:10108000950BE817F90708F055C0F0938601E09337
:101090008501F90171836083A0CF8D919C91119797
:1010A00012966C90129713967C901397A815B90519
:1010B00059F56C0142E0C40ED11CCA14DB0420F1C6
:1010C000AC014A195B09DA011296159780F0628229
:1010D000738251834083D9016D937C93E114F104B1
:1010E00071F0D7011396FC93EE93129776CF229668
:1010F0008C0F9D1FF90191838083F301EFCFF09353
:101100008801E093870169CF4816590608F42C013D
:101110007D01D3019ACFCB010E94BB067C010097D1
:1011200049F0AE01B8010E949D08C8010E9457070E
:10113000870153CF10E000E050CFFB01DC0102C07B
:1011400001900D9241505040D8F70895FB01DC0109
:1011500001900D920020E1F7089510E0C2E6D0E082
:1011600004C0FE010E94B5062196C336D107C9F717
:04117000F894FFCF21
:10117400850185010A000000890180000300040044
:1011840005000600000001000700080009000A002D
:101194000B000D000E000F001300120011001000D0
:1011A40031303030003031303000303031300030C8
:0411B40030303100A6
:107E0000112484B714BE81FFF0D085E080938100F7
:107E100082E08093C00088E18093C10086E0809377
:107E2000C20080E18093C4008EE0C9D0259A86E02C
:107E300020E33CEF91E0309385002093840096BBD3
:107E4000B09BFECF1D9AA8958150A9F7CC24DD24C4
:107E500088248394B5E0AB2EA1E19A2EF3E0BF2EE7
:107E6000A2D0813461F49FD0082FAFD0023811F036
:107E7000013811F484E001C083E08DD089C08234E0
:107E800011F484E103C0853419F485E0A6D080C0E4
:107E9000853579F488D0E82EFF2485D0082F10E0AE
:107EA000102F00270E291F29000F111F8ED06801E7
:107EB0006FC0863521F484E090D080E0DECF843638
:107EC00009F040C070D06FD0082F6DD080E0C81688
:107ED00080E7D80618F4F601B7BEE895C0E0D1E017
:107EE00062D089930C17E1F7F0E0CF16F0E7DF06D8
:107EF00018F0F601B7BEE89568D007B600FCFDCFD4
:107F0000A601A0E0B1E02C9130E011968C91119780
:107F100090E0982F8827822B932B1296FA010C0160
:107F200087BEE89511244E5F5F4FF1E0A038BF0790
:107F300051F7F601A7BEE89507B600FCFDCF97BE46
:107F4000E89526C08437B1F42ED02DD0F82E2BD052
:107F50003CD0F601EF2C8F010F5F1F4F84911BD097
:107F6000EA94F801C1F70894C11CD11CFA94CF0C13
:107F7000D11C0EC0853739F428D08EE10CD085E9AC
:107F80000AD08FE07ACF813511F488E018D01DD067
:107F900080E101D065CF982F8091C00085FFFCCF94
:107FA0009093C60008958091C00087FFFCCF809118
:107FB000C00084FD01C0A8958091C6000895E0E648
:107FC000F0E098E1908380830895EDDF803219F02E
:107FD00088E0F5DFFFCF84E1DECF1F93182FE3DFCA
:107FE0001150E9F7F2DF1F91089580E0E8DFEE27F6
:047FF000FF270994CA
:027FFE00040479
:0400000300007E007B
:00000001FF
